{
  "contractName": "BulkSend",
  "abi": [
    {
      "anonymous": false,
      "inputs": [
        {
          "indexed": true,
          "internalType": "uint256",
          "name": "total",
          "type": "uint256"
        },
        {
          "indexed": true,
          "internalType": "address",
          "name": "tokenAddress",
          "type": "address"
        },
        {
          "indexed": true,
          "internalType": "uint256",
          "name": "transactionId",
          "type": "uint256"
        }
      ],
      "name": "BulkTransferCompleted",
      "type": "event"
    },
    {
      "anonymous": false,
      "inputs": [
        {
          "indexed": true,
          "internalType": "address",
          "name": "previousOwner",
          "type": "address"
        },
        {
          "indexed": true,
          "internalType": "address",
          "name": "newOwner",
          "type": "address"
        }
      ],
      "name": "OwnershipTransferred",
      "type": "event"
    },
    {
      "inputs": [],
      "name": "owner",
      "outputs": [
        {
          "internalType": "address",
          "name": "",
          "type": "address"
        }
      ],
      "stateMutability": "view",
      "type": "function",
      "constant": true
    },
    {
      "inputs": [],
      "name": "renounceOwnership",
      "outputs": [],
      "stateMutability": "nonpayable",
      "type": "function"
    },
    {
      "inputs": [
        {
          "internalType": "address",
          "name": "newOwner",
          "type": "address"
        }
      ],
      "name": "transferOwnership",
      "outputs": [],
      "stateMutability": "nonpayable",
      "type": "function"
    },
    {
      "inputs": [],
      "name": "txCount",
      "outputs": [
        {
          "internalType": "uint256",
          "name": "",
          "type": "uint256"
        }
      ],
      "stateMutability": "view",
      "type": "function",
      "constant": true
    },
    {
      "inputs": [
        {
          "internalType": "uint256",
          "name": "transactionId",
          "type": "uint256"
        },
        {
          "internalType": "address",
          "name": "tokenAddress",
          "type": "address"
        },
        {
          "internalType": "address[]",
          "name": "recipients",
          "type": "address[]"
        },
        {
          "internalType": "uint256[]",
          "name": "balances",
          "type": "uint256[]"
        }
      ],
      "name": "bulkTransfer",
      "outputs": [],
      "stateMutability": "payable",
      "type": "function",
      "payable": true
    }
  ],
  "bytecode": "0x6080604052600060015534801561001557600080fd5b5061001f33610024565b610074565b600080546001600160a01b038381166001600160a01b0319831681178455604051919092169283917f8be0079c531659141344cd1fd0a4f28419497f9722a3daafe3b4186f6b6457e09190a35050565b610778806100836000396000f3fe60806040526004361061004a5760003560e01c80633c5406871461004f5780635480c18714610078578063715018a61461008d5780638da5cb5b146100a2578063f2fde38b146100ca575b600080fd5b34801561005b57600080fd5b5061006560015481565b6040519081526020015b60405180910390f35b61008b610086366004610624565b6100ea565b005b34801561009957600080fd5b5061008b610457565b3480156100ae57600080fd5b506000546040516001600160a01b03909116815260200161006f565b3480156100d657600080fd5b5061008b6100e53660046105e0565b61048d565b6000546001600160a01b0316331461011d5760405162461bcd60e51b8152600401610114906106ae565b60405180910390fd5b600080865b858210156103ff57600184111561029b578386146101975760405162461bcd60e51b815260206004820152602c60248201527f5370656369667920616d6f756e7420666f7220616c6c2074686520726563697060448201526b69656e747320706c6561736560a01b6064820152608401610114565b806001600160a01b03166323b872dd338989868181106101b9576101b961072c565b90506020020160208101906101ce91906105e0565b8888878181106101e0576101e061072c565b6040516001600160e01b031960e088901b1681526001600160a01b03958616600482015294909316602485015250602090910201356044820152606401602060405180830381600087803b15801561023757600080fd5b505af115801561024b573d6000803e3d6000fd5b505050506040513d601f19601f8201168201806040525081019061026f9190610602565b508484838181106102825761028261072c565b905060200201358361029491906106e3565b92506103ed565b600184146102eb5760405162461bcd60e51b815260206004820152601760248201527f5370656369667920612073696e676c6520616d6f756e740000000000000000006044820152606401610114565b806001600160a01b03166323b872dd3389898681811061030d5761030d61072c565b905060200201602081019061032291906105e0565b888860008181106103355761033561072c565b6040516001600160e01b031960e088901b1681526001600160a01b03958616600482015294909316602485015250602090910201356044820152606401602060405180830381600087803b15801561038c57600080fd5b505af11580156103a0573d6000803e3d6000fd5b505050506040513d601f19601f820116820180604052508101906103c49190610602565b50848460008181106103d8576103d861072c565b90506020020135836103ea91906106e3565b92505b816103f7816106fb565b925050610122565b6001805490600061040f836106fb565b919050555088886001600160a01b0316847f212f07f3439d0bc9ccd0336f66ebc0a5930f0c2917f6be478dad22119ab64a1260405160405180910390a4505050505050505050565b6000546001600160a01b031633146104815760405162461bcd60e51b8152600401610114906106ae565b61048b6000610528565b565b6000546001600160a01b031633146104b75760405162461bcd60e51b8152600401610114906106ae565b6001600160a01b03811661051c5760405162461bcd60e51b815260206004820152602660248201527f4f776e61626c653a206e6577206f776e657220697320746865207a65726f206160448201526564647265737360d01b6064820152608401610114565b61052581610528565b50565b600080546001600160a01b038381166001600160a01b0319831681178455604051919092169283917f8be0079c531659141344cd1fd0a4f28419497f9722a3daafe3b4186f6b6457e09190a35050565b80356001600160a01b038116811461058f57600080fd5b919050565b60008083601f8401126105a657600080fd5b50813567ffffffffffffffff8111156105be57600080fd5b6020830191508360208260051b85010111156105d957600080fd5b9250929050565b6000602082840312156105f257600080fd5b6105fb82610578565b9392505050565b60006020828403121561061457600080fd5b815180151581146105fb57600080fd5b6000806000806000806080878903121561063d57600080fd5b8635955061064d60208801610578565b9450604087013567ffffffffffffffff8082111561066a57600080fd5b6106768a838b01610594565b9096509450606089013591508082111561068f57600080fd5b5061069c89828a01610594565b979a9699509497509295939492505050565b6020808252818101527f4f776e61626c653a2063616c6c6572206973206e6f7420746865206f776e6572604082015260600190565b600082198211156106f6576106f6610716565b500190565b600060001982141561070f5761070f610716565b5060010190565b634e487b7160e01b600052601160045260246000fd5b634e487b7160e01b600052603260045260246000fdfea2646970667358221220d250afe249eb6a571feb5b426c741f4f3ec18b0c495af58ec7afd56ddf41209964736f6c63430008060033",
  "immutableReferences": {},
  "source": "// SPDX-License-Identifier: UNLICENSED\npragma solidity ^0.8.6;\n\nimport \"./Ownable.sol\";\nimport \"./IBEP20.sol\";\n\ncontract BulkSend is Ownable {\n    uint256 public txCount = 0;\n\n    event BulkTransferCompleted(\n        uint256 indexed total,\n        address indexed tokenAddress,\n        uint256 indexed transactionId\n    );\n\n    function bulkTransfer(\n        uint256 transactionId,\n        address tokenAddress,\n        address[] calldata recipients,\n        uint256[] calldata balances\n    ) public payable onlyOwner {\n        uint256 total = 0;\n        uint256 i = 0;\n        IBEP20 token = IBEP20(tokenAddress);\n\n        for (i; i < recipients.length; i++) {\n            if (balances.length > 1) {\n                require(\n                    balances.length == recipients.length,\n                    \"Specify amount for all the recipients please\"\n                );\n                token.transferFrom(msg.sender, recipients[i], balances[i]);\n                total += balances[i];\n            } else {\n                require(balances.length == 1, \"Specify a single amount\");\n                token.transferFrom(msg.sender, recipients[i], balances[0]);\n                total += balances[0];\n            }\n        }\n\n        txCount++;\n        emit BulkTransferCompleted(total, tokenAddress, transactionId);\n    }\n}\n",
  "sourcePath": "/Users/divineolokor/Desktop/bulkTransfer/contracts/BulkSend.sol",
  "compiler": {
    "name": "solc",
    "version": "0.8.6+commit.11564f7e.Emscripten.clang"
  },
  "schemaVersion": "3.4.1",
  "updatedAt": "2021-08-20T09:28:37.159Z",
  "networkType": "ethereum",
  "devdoc": {
    "kind": "dev",
    "methods": {},
    "version": 1
  },
  "userdoc": {
    "kind": "user",
    "methods": {},
    "version": 1
  }
}